:020000040800F2
:10000000500800209D010008F72300083B1D000850
:10001000F5230008890700089B2A0008000000005B
:10002000000000000000000000000000FB230008AA
:100030008B07000800000000F9230008FD230008DA
:10004000B7010008B7010008B7010008B7010008B0
:10005000B7010008B7010008B7010008B7010008A0
:10006000B7010008B7010008B7010008B701000890
:10007000B7010008B7010008B7010008B701000880
:10008000B7010008B7010008B7010008B701000870
:10009000B7010008B7010008B7010008B701000860
:1000A000B7010008B7010008B7010008B701000850
:1000B000B7010008B7010008B7010008B701000840
:1000C000B7010008B7010008B7010008B701000830
:1000D000B7010008B7010008B70100082928000887
:1000E000B7010008B7010008B7010008B701000810
:1000F000B7010008B7010008B7010008B701000800
:10010000B7010008B7010008B7010008B7010008EF
:10011000B7010008B7010008B7010008B7010008DF
:10012000B7010008B7010008B7010008B7010008CF
:10013000B7010008B7010008B7010008B7010008BF
:10014000B7010008B7010008B7010008B7010008AF
:10015000B7010008B7010008B7010008B70100089F
:10016000B7010008B7010008B7010008B70100088F
:10017000B7010008B7010008B7010008000000003F
:10018000B7010008B7010008DFF80CD000F0D8FA7A
:1001900000480047413500085008002006488047C5
:1001A00006480047FEE7FEE7FEE7FEE7FEE7FEE75C
:1001B000FEE7FEE7FEE7FEE7952400088901000858
:1001C0002DE9F05F0546002092469B46884606468C
:1001D000814640241BE0284641464746224600F01F
:1001E00089F853465A46C01A914110D31146184611
:1001F000224600F070F82D1A67EB01084F462246A0
:100200000120002100F067F817EB00094E41201E85
:10021000A4F10104DFDC484631462A464346BDE8E6
:10022000F09F40EA01039B0703D009E008C9121FB1
:1002300008C0042AFAD203E011F8013B00F8013BA0
:10024000521EF9D27047D2B201E000F8012B491ECC
:10025000FBD270470022F6E710B513460A46044663
:100260001946FFF7F0FF204610BD0EB540F23341AE
:1002700002910021CDE900110A460B4600F059F821
:1002800003B000BD00F0004230F000400AD0C10DC4
:1002900001F56071C0F3160042EA0151C20840073F
:1002A0001143704700200146704730B50B460146A8
:1002B00000202022012409E021FA02F59D4205D305
:1002C00003FA02F5491B04FA02F52844151EA2F1AF
:1002D0000102F1DC30BD202A04DB203A00FA02F1F1
:1002E000002070479140C2F1200320FA03F3194324
:1002F00090407047202A04DB203A21FA02F00021C6
:10030000704721FA02F3D040C2F120029140084325
:100310001946704710B5141E73F1000408DA401C2A
:1003200041F1000192185B411A4301D120F0010014
:1003300010BD2DE9F04D92469B4611B1B1FA81F204
:1003400002E0B0FA80F220329046FFF7C4FF044684
:100350000F4640EA0A0041EA0B0153465A46084359
:1003600013D0114653EA010019D0C8F1400250469B
:10037000FFF7C0FF05460E46504659464246FFF776
:10038000AAFF084305D0012004E020463946BDE815
:10039000F08D0020054346EAE0762C4337430A9867
:1003A0006305E40AA0EB08000022FD0A44EA475472
:1003B0000A3002D500200146E9E70105101969411C
:1003C000DDE9084500196941BDE8F04DA2E72DE9D6
:1003D000FE4F804681EA0300C00F0C46009021F0DA
:1003E000004123F00045B8EB0200A94105D2404688
:1003F000214690461C460B46024623F0004010431F
:1004000047D0270DC7F30A00C3F30A510290401AE0
:10041000019040286BDAC3F3130040F4801B00986E
:10042000924620B10023D2EB030A63EB0B0B019839
:100430005946C0F140025046FFF74DFF06460D46B3
:1004400050465946019A00F08DF910EB08006141C1
:10045000002487EA115284EAE7731A4340D0009AD5
:1004600062B3019A012A4FEA075215DC001B61EBC7
:1004700002014FF0004202EA0752CDE90042001C9F
:1004800041F5801132462B46FFF753FF03B0BDE81C
:10049000F08F40462146F9E7001B61EB0201001C8A
:1004A00041F5801300185B412018A2F5001747EBB7
:1004B000030140EAD570B6196D4111E06D084FEAAD
:1004C000360645EAC0754FEA0752001B61EB020190
:1004D000001C41F5801149084FEA300000195141D4
:1004E00032462B4603B0BDE8F04FFFF713BF00982C
:1004F000012240000023D0EB020263EBE07300987E
:1005000021464FEAE074B8EB000061EB0401E9E733
:1005100083F000435BE781F0004158E72DE9FE4F8F
:1005200081EA030404F0004421F0004100944FF0FC
:10053000000B23F0004350EA01045ED052EA0304AA
:100540005BD0C3F30A54C1F30A552C44A4F2F3342C
:100550000194A0FB0254C1F3130141F48011C3F3D1
:10056000130343F4801301FB024400FB034E840A8F
:10057000970A44EA815447EA8357A4FB0768029527
:100580008D0A05FB07854FEA932C04FB0C542705C5
:10059000029D4FEA065847EA1637B5EB08056EEBA1
:1005A000070C870E920E47EA811742EA8312A7FBD7
:1005B0000201B6EB0B0164EB00042B0D43EA0C3394
:1005C0005E1844EB1C50DA465146E7FB0201C5F3C6
:1005D00013044FEA0B3343EA14534FEA0432019CED
:1005E00043EA0603A4F10C040294009CCDE900B494
:1005F000FFF79FFE03B0BDE8F08F00200146F9E74A
:100600002DE9F04D81EA030404F0004B21F0004590
:1006100014464FF0000A23F0004150EA050220D0B2
:1006200054EA01021DD0C5F30A570246C5F313036D
:10063000C1F31300C1F30A5640F4801543F480134C
:10064000A7EB0608101BD64608F2FD3873EB050031
:1006500002D308F1010801E092185B41B8F1000FE4
:1006600003DA00200146BDE8F08D00204FF4801130
:10067000064684460EE0171B73EB050705D3121BD5
:1006800063EB050306434CEA010C49084FEA3000CE
:1006900092185B4150EA0107EDD152EA030012D0F3
:1006A00082EA040083EA0501084305D0101BAB4130
:1006B00006D20122002306E000224FF0004302E0B0
:1006C0006FF0010253101AEB06004CEB085110EBCF
:1006D0000A0041EB0B01BDE8F04DFFF71BBEC1F373
:1006E0000A52C1F3130140F2FF3341F480119A42E0
:1006F00002DA00200146704740F233439A42A2F2E8
:10070000334202DC5242FFF7F5BDFFF7E4BD0000C3
:1007100030B5041E71F1000404DB4FF00044404288
:1007200064EB0101141E73F1000405DB1C464FF05D
:100730000043524263EB0403994208BF904230BD2C
:10074000064C074D06E0E06840F0010394E807001E
:1007500098471034AC42F6D3FFF71AFDA4360008D0
:10076000C4360008202A06DBCB17203A41FA02F0F3
:1007700043EAE07306E041FA02F3D040C2F12002FE
:100780009140084319467047FEE7704772B6FEE78E
:1007900090F83510022903D080214165012070476F
:1007A000052180F835100068016821F00101016021
:1007B0000020704770B5044600F00CF90546601C37
:1007C00002D004480078044400F004F9401BA04221
:1007D000FAD370BD000000202DE9F84FDFF8BCA16E
:1007E0000022012503264FF00F090AF1040BAAF19C
:1007F000040E00BF0B6805FA02F42340A34270D137
:100800000F7907F00307012F01D0022F16D1876857
:100810004FEA420806FA08FC27EA0C07D1F80CC098
:100820000CFA08FC4CEA070CC0F808C04768A7435C
:100830000C79C4F3001494403C4344600C79E443C5
:10084000A4070AD0C4684FEA420C06FA0CF7BC436E
:100850008F6807FA0CF72743C7600C7904F003048C
:10086000022C12D1D40800EB840CDCF8204057078E
:10087000FF0E09FA07F824EA0804D1F8108008FAF4
:1008800007F848EA0408CCF8208004684FEA420CD4
:1008900006FA0CF7BC430F7907F0030707FA0CF7C9
:1008A000274307604C6814F4403F70D03C4C2768E5
:1008B00047F480472760246822F0030704F480444B
:1008C0000094384C07EB040CDCF8084897074FEA13
:1008D000177809FA08F7BC43334FB84202D1002712
:1008E00024E054E0314FB84201D101271EE0304FDF
:1008F000B84201D1022719E02E4FB84201D1032797
:1009000014E02D4FB84201D104270FE02B4FB8421D
:1009100001D105270AE02A4FB84201D1062705E098
:10092000284FB84201D1072700E0082707FA08F747
:100930002743CCF80878DAF800405746D1F804C0CD
:100940009C435FEACC2C00D51C433C60DBF80040A4
:100950005F46D1F804C09C435FEA8C2C00D51C4351
:100960003C60DEF800407746D1F804C09C435FEA63
:100970008C3C00D51C433C60084F083F3C68D1F8D4
:1009800004C09C435FEACC3C00D51C433C60521C35
:10099000102AFFF42FAFBDE8F88F0000083C01409B
:1009A0004438024000300140000002400004024090
:1009B00000080240000C02400010024000140240F7
:1009C00000180240001C02400AB18161704709040E
:1009D000FBE700000148806870470000000000202D
:1009E00070B5040025D094F83D00002520B984F8A6
:1009F0003C50204600F0B8F8242084F83D002068E0
:100A0000016821F0010101602068016841F40041A2
:100A100001602068016821F40041016000F04CFA97
:100A20004D4A6168914201D84C4900E04C498842E6
:100A300001D2012070BD4B492368B0FBF1F15E6823
:100A400026F03F060E435E606368934206D94FF47A
:100A5000967359434FF47A73B1FBF3F12368491C41
:100A60001E6A26F03F06314319626168914210D830
:100A70004900401EB0FBF1F2521CC2F30B02042AE3
:100A800001D2042022E0B0FBF1F0401CC0F30B00C7
:100A90001CE0A268F2B301EBC10303EB0116431E95
:100AA000B3FBF6F35B1C43F480431B0549D092B3C0
:100AB00001EBC10202EB0111401EB0FBF1F0401C42
:100AC000C0F30B0040F4804040F400402168CA6944
:100AD0004CF6FF739A431043C861D4E907100143F1
:100AE0002068026822F0C00211430160D4E90301CA
:100AF00001432068826848F2FF339A4311438160C2
:100B0000D4E9050108432168CA6822F0FF021043B6
:100B1000C86001E00EE016E02068016841F00101C4
:100B200001602564202084F83D00256384F83E5050
:100B3000002070BD01EB4106431EB3FBF6F35B1CC6
:100B4000B3E70120C2E701EB4101401EB0FBF1F029
:100B5000401CC0F30B00B7E7A086010080841E0094
:100B600000093D0040420F002DE9F04186B00446E7
:100B700014216846FFF76EFB2F4A2168DFF8BC801E
:100B800000242E4812250326042708F1100891425C
:100B90001CD1016841F002010160006802AA00F066
:100BA00002000590B002CDE9000582E8D000694658
:100BB0002348FFF711FED8F8001041F48001C8F86F
:100BC0000010D8F8000000F4800031E01D4A914286
:100BD0002FD1016841F004010160016801F00401B6
:100BE0000591016841F0010101600068694600F06B
:100BF000010005905015CDE9000502AA124882E8CF
:100C0000D000FFF7E9FD4FF48070CDE9000502AA9E
:100C1000694682E8D0000D48FFF7DEFDD8F80010E5
:100C200041F40001C8F80010D8F8000000F40000FA
:100C3000059006B0BDE8F081005800403038024011
:100C400000040240005C0040000802400000024036
:100C500002488168027811448160704700000020DA
:100C60000B4810B5016841F400710160016841F45E
:100C700080610160016841F480710160032000F02F
:100C80006FF80F2000F006F800F024F8002010BDE7
:100C9000003C024070B50D4D04464FF47A7128783F
:100CA000B1FBF0F00A490968B1FBF0F000F00CFB71
:100CB00048B9102C07D200222146501E00F030F80F
:100CC00000206C6070BD012070BD0000000000209D
:100CD0000C0000200A4808B5016841F48041016019
:100CE000006800F4804000900548001F016841F052
:100CF00080510160006800F08050009008BD000045
:100D000044380240002809DB00F01F020121914015
:100D10004009800000F1E020C0F800117047000099
:100D2000F0B40E4B1B680C46C3F30223C3F1070556
:100D3000042D00D90425191D072901D2002300E044
:100D4000DB1E012606FA05F1491E214099409E400E
:100D5000761E16403143F0BC01F0B0BE0CED00E051
:100D6000064900F0070208684FF6FF03184040EA02
:100D70000220034A10430860704700000CED00E0B9
:100D80000000FA052DE9F0470E46050065D0DFF8B2
:100D90001481D8F80000F7B200F00700B04207D283
:100DA00088F80070D8F8000000F00700B04254D175
:100DB00028683D4C810712D5400703D5206840F4D0
:100DC000E05020602878000703D5206840F4604098
:100DD00020602068A96820F0F0000843206028788F
:100DE000C0072DD0304968680839012812D0022880
:100DF00013D0032811D00968890700292DDA21684A
:100E000021F0030101432160FFF7E4FD814641F237
:100E1000883A0EE009688903EFE709688901ECE781
:100E2000FFF7D8FDA0EB0901514502D90320BDE829
:100E3000F0872068696800F00C00B0EB810FEFD1FB
:100E4000D8F80010404601F00701B14207D90770F9
:100E5000006800F00700B04201D00120E7E72878E1
:100E6000400705D52068E96820F4E0500843206079
:100E70002878000706D52068296920F4604040EAF8
:100E8000C100206000F038F82168084AC1F303115E
:100E9000515CC8400649086006480068FFF7FAFE42
:100EA0000020C4E7003C0240083802408C360008AD
:100EB0000C0000200400002004480549006809686F
:100EC000044AC1F38221515CC84070470C000020E5
:100ED000083802409C360008044805490068096843
:100EE000044AC1F34231515CC84070470C000020F5
:100EF000083802409C360008154810B5006810F00C
:100F00000C02144813D01449042A0FD0082A0ED119
:100F10000F4C241F2268236802F03F025B0207D5B2
:100F20002068C0F38810A0FB010106E0084610BD50
:100F30002168C1F38811A1FB00010023FFF740F9EC
:100F40002168C1F30141491C4900B0FBF1F010BD1B
:100F5000083802400024F40040787D012DE9F84F64
:100F600004006ED02078DFF84C93C007A9F1040587
:100F70004AD009F104000168C1F38101012908D0B8
:100F80000068C0F3810002280AD1D9F800004002AD
:100F900006D52868800337D560680028E1D033E0A3
:100FA0006068B0F5803F10D0B0F5A02F286810D051
:100FB00020F480302860286820F480202860606851
:100FC000A8B1FFF707FD06460DE0286840F4803021
:100FD000F4E740F480202860F7E700BFFFF7FAFC51
:100FE000801B642873D828688003F7D50CE0FFF7CE
:100FF000F1FC064605E000BFFFF7ECFC801B64280F
:10100000F0D828688003F7D42078DFF8AC82800716
:101010004FF0000A3ED5A748001D016811F00C0FE3
:1010200008D00068C0F3810002280BD1D9F8000075
:10103000400207D42868800716D5E068012800D14F
:1010400012E033E1E068B8B10120C8F80000FFF712
:10105000C1FC064605E000BFFFF7BCFC801B022870
:10106000C0D828688007F7D52868216920F0F800E3
:1010700040EAC10028600DE0C8F800A0FFF7AAFC14
:10108000064604E0FFF7A6FC801B02281FD828684C
:101090008007F7D42078000722D5864F87486169FA
:1010A000703771B101210160FFF794FC064604E03E
:1010B000FFF790FC801B022809D838688007F7D515
:1010C0000EE0C0F800A0FFF785FC064605E082E0D0
:1010D000FFF780FC801B02287DD838688007F7D492
:1010E0002078400768D5DFF8CCB100270BF13C0B26
:1010F000DBF80000C0000BD4DBF8001041F0805199
:10110000CBF80010DBF80000012700F080500090C1
:101110006B4E3068C00510D4306840F48070306089
:10112000FFF758FC009005E0FFF754FC0099401AC7
:10113000022850D83068C005F6D55E4EA0686C36DF
:1011400001280FD00528306810D020F00100306051
:10115000306820F004003060A068B8B1FFF73AFCB6
:1011600000900FE0306840F00100F4E740F0040028
:101170003060F7E7FFF72EFC0099411A41F2883002
:10118000814266D830688007F4D50EE0FFF722FC74
:10119000009007E0FFF71EFC0099411A41F28830E9
:1011A000814256D830688007F4D42FB1DBF80010A4
:1011B00021F08051CBF80010A069C8B33D49091D4A
:1011C0000968C1F3810102294AD00228504607D09C
:1011D000C8F8600000E03CE0FFF7FCFB04463BE0A1
:1011E0004746C8F86000FFF7F5FB064605E000BF7C
:1011F000FFF7F0FB801B02282BD828688001F7D46A
:10120000D4E907010843A16A2E4A490802EB0141CB
:10121000626A41EA8211084394F82C1040EA0161A5
:10122000C9F8001001203866FFF7D4FB044606E039
:101230003EE000BFFFF7CEFB001B022809D828685C
:101240008001F7D534E000BFFFF7C4FB001B022884
:1012500002D90320BDE8F88F28688001F4D427E084
:101260000128F7D0D9F80000E26900F4800191422A
:101270001CD1226A00F03F01914217D147F6C0719C
:10128000626A0140B1EB821F10D1A26A4FF0FF33B6
:1012900000F4403103EB5202B1EB024F06D194F857
:1012A0002C1000F07060B0EB016F01D00120D1E78D
:1012B0000020CFE70438024000004742800E47423A
:1012C000007000400000FFFF10B5401EB0F1807FAD
:1012D00001D3012010BD4FF0E02460610F216017A1
:1012E00001F0ECFB0020A06107202061002010BD70
:1012F00070B590F83C20012A32D0012480F83C409F
:10130000022280F83D2003685A689D6822F070062A
:101310000A6832435A60134B02689A4214D0B2F101
:10132000804F11D0104B9A420ED0104B9A420BD0E6
:101330000F4B9A4208D00F4B9A4205D00E4B9A425F
:1013400002D00E4B9A4204D1496825F0800319431C
:10135000916080F83D40002180F83C10084670BD47
:10136000022070BD00000140000400400008004061
:10137000000C004000040140004001400018004003
:1013800010B5040003D094F83D0010B107E001202F
:1013900010BD002084F83C00204600F01FF8022019
:1013A00084F83D00211D206801F07CF8012084F8BC
:1013B000460084F83E0084F83F0084F8400084F83A
:1013C000410084F8420084F8430084F8440084F823
:1013D000450084F83D00002010BD000008B50C4A0F
:1013E00001680C48914207D1016841F08001016019
:1013F000006800F0800009E0074A914207D10168C7
:1014000041F480710160006800F48070009008BDB4
:10141000001C004040380240002000402DE9F0410F
:101420000D46040003D094F83D0018B108E00120F7
:10143000BDE8F081002084F83C00204600F040F830
:10144000022084F83D002068816844F2070291433D
:101450008160211D206801F025F82268906891695B
:10146000166A2B68AF69034340F20330814341EAB7
:101470000721A868EF6908434FF6FC418843E968F3
:1014800040EA0720014328692F6A000140EA07303B
:10149000084369686D6926F0AA0646EA05152943DE
:1014A00093602268906154F8460B0162012004F8B1
:1014B0001F09E0752076E0762077A0750020B7E759
:1014C00030B587B0044614216846FEF7C3FE246891
:1014D0003E4B00213E4802229C421CD13C4B14331F
:1014E0001C6844F001041C601B6803F001030593B1
:1014F000036843F010030360006800F010000590DB
:101500004FF420600090CDE901210120CDE90310C6
:10151000694630481CE02E4B2F4D1033AC421BD196
:101520001C6844F002041C601B6803F0020305936E
:10153000036843F002030360006800F002000590B6
:1015400030200090CDE90121CDE9031269462348FE
:10155000FFF742F907B030BD214DAC4219D11C68EC
:1015600044F004041C601B6803F004030593036843
:1015700043F008030360006800F0080005904FF492
:1015800040500090CDE90121CDE90312694615488C
:10159000DEE7154DAC42DDD11C6844F008041C6048
:1015A0001B6803F008030593036843F0010303601D
:1015B000006800F00100059003200090CDE90121B2
:1015C000CDE9031269460948C2E700000000014066
:1015D0003038024000100240000400400004024085
:1015E00000080040000C0240000C004000000240D7
:1015F00070B586B0044614216846FEF72BFE2468B9
:101600000022314902233148B4F1804F18D0304DC7
:10161000AC4226D1086840F01000086008686946AE
:1016200000F01000059060200090CDE90132032009
:10163000CDE90320274800BFFFF7CEF806B070BD04
:101640000C6844F001040C60096801F00101059187
:101650002C210091CDE901320121CDE90321694618
:10166000EAE71D4E0925B4420ED1086840F0020099
:1016700008600868694600F002000590E0000090EC
:10168000CDE9013215481CE0154EB44209D10C6871
:1016900044F001040C60096801F00101059140214A
:1016A0000BE0104EB442C9D10C6844F001040C6048
:1016B000096801F00101059180210091CDE9013215
:1016C0006946CDE90325B7E7303802400000024003
:1016D0000040014000100240001800400004024099
:1016E000001C00400020004070B5044690F83C000B
:1016F00000260D4601280FD0012084F83C006AB175
:10170000042A1DD0082A2FD00C2A3FD00126002001
:1017100084F83C00304670BD022070BD206800F0A7
:101720003BFF2068816941F008018161206881697F
:1017300021F004018161206881692A69114311E067
:10174000206800F059FF2068816941F400618161DF
:101750002068816921F480618161206881692A693A
:1017600041EA02218161D2E7206800F07BFF206816
:10177000C16941F00801C1612068C16921F004011B
:10178000C1612068C1692A69114311E0206800F035
:101790009DFF2068C16941F40061C1612068C16991
:1017A00021F48061C1612068C1692A6941EA02218E
:1017B000C161ACE710B5040003D094F83D0010B14E
:1017C00007E0012010BD002084F83C00204600F016
:1017D0001FF8022084F83D00211D206800F062FE01
:1017E000012084F8460084F83E0084F83F0084F825
:1017F000400084F8410084F8420084F8430084F8F3
:10180000440084F8450084F83D00002010BD00002D
:1018100008B501681148B1F1804F0CD0104A9142CF
:1018200011D1001D016841F480310160006800F4AD
:101830008030009008BD016841F00101016000683E
:1018400000F00100F5E7074A9142F3D1016841F049
:1018500040010160006800F04000EAE740380240C3
:10186000004001400018004010B50446022249B172
:1018700004290ED0082913D094F84100012816D06D
:10188000012010BD94F83E000128F9D184F83E20D3
:101890000FE094F83F000128F2D184F83F2008E0DF
:1018A00094F840000128EBD184F8402001E084F84E
:1018B00041200122206800F061FE16492068164A86
:1018C000884201D0904203D1436C43F40043436407
:1018D0002068884213D0B0F1804F10D00F49884261
:1018E0000DD00F4988420AD00E49884207D0904255
:1018F00005D00D49884202D00C49884204D1816844
:1019000001F00701062903D0016841F001010160DF
:10191000002010BD00000140000401400004004010
:1019200000080040000C004000400140001800404A
:1019300070B5040004D094F84100002510B106E011
:10194000012070BD84F84050204600F023F8242088
:1019500084F841002068C16821F40051C16020462C
:1019600000F0DCFE2068016921F4904101612068EB
:10197000416921F02A0141612068C16841F40051A8
:10198000C1606564202084F8410084F842006563EA
:10199000002070BD10B586B0044614216846FEF7DD
:1019A00059FC14492068884221D11348002102685B
:1019B00042F010020260006800F0100005900E482E
:1019C0001438026842F001020260006800F0010071
:1019D00005904FF4C06000900220CDE90101032082
:1019E00003900720049069460448FEF7F5FE06B010
:1019F00010BD0000001001404438024000000240C9
:101A00007047000070B5026804461068D1685369D9
:101A100010F00F0F56D003F0010501F490762E431D
:101A20006AD0C20705D0CA0503D5226C42F0010274
:101A30002264420705D5DA0703D0226C42F0020285
:101A40002264820705D5DA0703D0226C42F0040233
:101A50002264020707D501F020022A4303D0226C3A
:101A600042F008022264226C002A3ED0800608D58B
:101A7000880606D594F83D00222820462FD000F095
:101A8000A1FF20684069216CC0F38010090700D4D1
:101A900060B3204600F0D6FE20684169490621D592
:101AA000416921F040014161A06BD8B1384901651D
:101AB000A06BFEF76DFE002817D0A06B016DBDE88E
:101AC00070400847830617D58B0615D594F83D005E
:101AD000222819D12046BDE8704000F0C1BE00F0B8
:101AE000BFFECEE72046FFF78BFF70BD2046FFF715
:101AF00087FF0020206470BD030634D50B0632D565
:101B000094F83D00122804D02046BDE8704000F053
:101B100059BF94F83D001228EDD1A068B0F5805F60
:101B200001D12069B0B1606A411C6162216800780E
:101B30004860608D401E0004000C6085DBD1206889
:101B4000C16821F08001C1602068C16841F0400196
:101B5000C16070BD606A0088C0F308005060606AB0
:101B6000801C6062E5E74006F3D54806F1D5D168F0
:101B7000204621F04001D16021684A6922F001022B
:101B80004A61012184F83D1000F0D5F870BD0000D5
:101B90003528000870B5040004D094F83D000025F5
:101BA00010B106E0012070BD84F83C50204600F0E2
:101BB0001BF8022084F83D00204600F099FE2068C2
:101BC000016921F4804101612068416921F02A0105
:101BD00041612068C16841F40051C1602564012061
:101BE00084F83D00002070BD2DE9F04186B0044628
:101BF00014216846FEF72EFB324A21680024324841
:101C000002250326DFF8C480914239D12E491031D4
:101C10000A6842F480220A60096801F48021059173
:101C2000016841F008010160016801F008010591B7
:101C3000016841F004010160006802AA00F004009C
:101C400005903002CDE90005072782E8D0006946FB
:101C50001F48FEF7C1FDE802CDE9000502AA69466A
:101C600082E8D0004046FEF7B7FD0022114627204B
:101C7000FFF756F82720FFF745F806B0BDE8F081DA
:101C8000144A9142F9D1104914310A6842F02002F5
:101C90000A60096801F020010591016841F0040122
:101CA00001600068029400F0040005904FF4E070B9
:101CB000CDE900050820CDE9036069464046FEF7FE
:101CC0008BFDDAE70048004030380240000802404F
:101CD000000C02400014014090F83D30012B27D148
:101CE000B1B1AAB190F83C30012B21D0C16202867B
:101CF000428600210164222280F83D2080F83C10B9
:101D0000016900290168CA6804D042F4907203E0B6
:101D10000120704742F02002CA6001684A6942F01F
:101D200001024A61006840F2FF11416000207047E3
:101D300002207047704770477047FEE72DE9F04F6B
:101D400087B014216846FEF785FA634800240168CD
:101D500041F010010160016801F010010591016876
:101D600041F004010160016801F00401059101687E
:101D700041F020010160016801F020010591016836
:101D800041F080010160016801F080010591016866
:101D900041F001010160016801F001010591016854
:101DA00041F040010160016801F0400105910168C6
:101DB00041F002010160016801F002010591016832
:101DC00041F0080101600068002200F00800059061
:101DD0001C214248FEF7F8FDDFF8048100220121B2
:101DE0004046FEF7F1FDDFF8FCA00022FF2150463F
:101DF000FEF7EAFDDFF8F0B04FF44056002231461E
:101E00005846FEF7E1FDDFF8E490B71000223946AE
:101E10004846FEF7D9FD1C2000900125CDE901546C
:101E200069462E480394FEF7D7FC0095CDE901548E
:101E3000694640460394FEF7CFFC4FF42470CDE989
:101E40000004694640460294FEF7C6FC0520CDE931
:101E50000004694626480294FEF7BEFCFF2000906D
:101E6000CDE90154694650460394FEF7B5FC00964F
:101E7000CDE90154694658460394FEF7ADFC00973E
:101E8000CDE90154694648460394FEF7A5FC92202B
:101E9000CDE90004694648460294FEF79DFC4FF4E4
:101EA0007E40CDE90004694650460294FEF794FC5A
:101EB0004FF45270CDE90004694658460294FEF78B
:101EC0008BFC0320CDE90004694604480294FEF728
:101ED00083FC07B0BDE8F08F3038024000100240AC
:101EE000001402400018024000040240000C0240AE
:101EF000000802400D4810B50B4901600C494160D3
:101F000000214FF480428160C0E903124161816188
:101F1000C1610162FEF764FD002803D0BDE81040F6
:101F2000FEF734BC10BD000000580040180000202F
:101F3000A08601000D4810B50B4901600C494160B5
:101F400000214FF480428160C0E903124161816148
:101F5000C1610162FEF744FD002803D0BDE81040D6
:101F6000FEF714BC10BD0000005C00406C000020B7
:101F7000A086010010B588B01C216846FEF76AF9FA
:101F80001648154900240160A721C0E901144FF447
:101F90007A71C0E903148461FFF70CFC08B1FEF705
:101FA000F5FB6020CDE900040294002269460B484D
:101FB0000494FFF799FB08B1FEF7E8FB0422694699
:101FC0000648FFF791FB08B1FEF7E0FB0348FFF777
:101FD0000FFB08B010BD0000001800407002002088
:101FE00010B588B01C216846FEF734F9144813492F
:101FF0000024C0E900144FF6FF71C0E902410461FA
:102000008461FFF7BDF908B1FEF7C0FB0C48FFF78C
:10201000D1FB08B1FEF7BAFB6020CDE900040294C1
:102020000022694606480494FFF75EFB08B1FEF7FC
:10203000ADFB0348FFF7DCFA08B010BD001C004000
:10204000B802002010B588B01C216846FEF702F9DE
:10205000144813490024C0E900144FF6FF71C0E989
:10206000024104618461FFF78BF908B1FEF78EFB32
:102070000C48FFF79FFB08B1FEF788FB6020CDE915
:10208000000402940022694606480494FFF72CFBE2
:1020900008B1FEF77BFB0348FFF7AAFA08B010BDB2
:1020A000002000400003002010B58CB024216846B9
:1020B000FEF7D0F800241648099414490A94C0E9A0
:1020C00000144FF6FF71C0E902410461446184616C
:1020D0000120CDE90004CDE902040494CDE90540D6
:1020E000079469460A480894FFF798F908B1FEF783
:1020F0004DFB099409A906480A94FFF7F9F800284E
:1021000001D0FEF743FB0CB010BD00000000014001
:10211000C000002010B58AB0002407941C21684636
:102120000894FEF797F81D484FF08041C0E900146D
:10213000611EC0E9024104618461FFF73BFB08B105
:10214000FEF724FB079407A914480894FFF7D0F87A
:1021500008B1FEF71BFB6020CDE9000402940022C9
:1021600069460E480494FFF7BFFA08B1FEF70EFB6C
:10217000082269460948FFF7B7FA08B1FEF706FBDF
:102180000C2269460548FFF7AFFA08B1FEF7FEFAE0
:102190000248FFF72DFA0AB010BD00000801002028
:1021A00010B58CB024216846FEF754F80024154879
:1021B000099413490A94C0E900144FF6FF71C0E96D
:1021C0000241046184610120CDE90004CDE90204EB
:1021D0000494CDE90540079469460A480894FFF73E
:1021E0001DF908B1FEF7D2FA099409A905480A9425
:1021F000FFF77EF8002801D0FEF7C8FA0CB010BD3A
:10220000000400405001002010B58CB02421684625
:10221000FEF720F800241548099413490A94C0E9F0
:1022200000144FF6FF71C0E902410461846101208E
:10223000CDE90004CDE902040494CDE905400794FA
:1022400069460A480894FFF7E9F808B1FEF79EFAD4
:10225000099409A905480A94FFF74AF8002801D013
:10226000FEF794FA0CB010BD000800409801002061
:1022700010B58CB024216846FDF7ECFF002415480A
:10228000099413490A94C0E90014611EC0E902418F
:10229000046184610120CDE90004CDE902040494C5
:1022A000CDE90540079469460A480894FFF7B6F857
:1022B00008B1FEF76BFA099409A906480A94FFF7DA
:1022C00017F8002801D0FEF761FA0CB010BD00002D
:1022D000000C0040E001002010B588B01C216846C9
:1022E000FDF7B8FF1648154900240160A721C0E991
:1022F00001144FF47A71C0E903148461FFF75AFAAC
:1023000008B1FEF743FA6020CDE9000402940022F0
:1023100069460B480494FFF7E7F908B1FEF736FA6F
:10232000042269460648FFF7DFF908B1FEF72EFAE6
:102330000348FFF75DF908B010BD00000040014000
:10234000280200200C4810B50A4901604FF4E13121
:102350004160002181600C22C160C0E904128161EA
:10236000C161FFF7E5FA002803D0BDE81040FEF791
:102370000DBA10BD00100140480300200D4810B5F3
:102380000B4901604FF4E1314160002181600C2272
:10239000C160C0E904128161C1610162FFF7FAFB0B
:1023A000002803D0BDE81040FEF7F0B910BD0000D2
:1023B00000480040900300200D4810B50B49016013
:1023C0004FF4E1314160002181600C22C160C0E91D
:1023D00004128161C1610162FFF7DCFB002803D0B8
:1023E000BDE81040FEF7D2B910BD00000014014056
:1023F000D4030020FEE7FEE770477047FEF728BCD5
:1024000030B593B030216846FDF724FF14210CA8A5
:10241000FDF720FF1D480025016841F08051016053
:10242000006800F0805011901948016841F4804123
:1024300001600068022400F48040119001200390A4
:1024400010200490009406940820CDE90750A8209D
:10245000CDE9090404200B906846FEF77FFD08B122
:1024600072B6FEE70CA90F2081E831004FF4A050AE
:102470000F904FF48050109005210CA8FEF782FCBD
:10248000002801D072B6FEE713B030BD40380240DC
:10249000007000400248016841F47001016070471B
:1024A00088ED00E0F0B50268294C2A4D2A4E2B4FEA
:1024B0002B4B4FF0804CA04209D0604507D0A8427A
:1024C00005D0B04203D0B84201D0984204D122F0E6
:1024D000700E4A6842EA0E02A0421BD0604519D035
:1024E000A84217D0B04215D0B84213D0984211D0AC
:1024F0001C4DA8420ED01C4DA8420BD01B4DA8422B
:1025000008D01B4DA84205D01A4DA84202D01A4D42
:10251000A84203D122F44075CA682A434D6922F0CB
:1025200080022A4302608A68C2620A688262A0420C
:1025300001D0984201D1096901630121416101691A
:10254000C90703D0016921F001010161F0BD00005C
:10255000000001400004004000080040000C004062
:102560000004014000400140004401400048014097
:1025700000180040001C00400020004010B501F091
:102580001F030121046A99408C430462016A9A4046
:102590001143016210BD0000F0B5036A026A22F027
:1025A0000102026242688469124E24F073050C68CD
:1025B0002C4323F002058B682B430D4DA84201D01C
:1025C000B04205D123F00807CB683B4323F0040356
:1025D000A84201D0B04205D14D6922F440721543A2
:1025E0008A692A4342608461496841630362F0BD9D
:1025F0000000014000040140F0B5026A036A23F0C4
:1026000010030362436884690D6824F4E64444EAD5
:1026100005248D6822F0200242EA05120F4D104E6B
:10262000A84201D0B04206D1CF6822F0800242EA2F
:10263000071222F04002A84201D0B04207D14D69F2
:1026400023F4406343EA85038D6943EA85034360CD
:102650008461496881630262F0BD000000000140AE
:1026600000040140F0B5026A036A23F48073036238
:102670004368C46922F4007224F073050C68124E9A
:102680002C438D6842EA05220E4DA84201D0B0428B
:1026900006D1CF6822F4006242EA072222F4806267
:1026A000A84201D0B04207D14D6923F4405343EA18
:1026B00005138D6943EA05134360C4614968C1632A
:1026C0000262F0BD000001400004014030B5046A20
:1026D000026A22F4805202624268C3690D6823F4E0
:1026E000E64343EA05238D6824F4005444EA0534A4
:1026F000084DA84202D0084DA84204D14D6922F4E9
:10270000804242EA85124260C36149680164046202
:1027100030BD0000000001400004014070B50446D7
:1027200000680169E26821F44051114301612169A7
:10273000A068E26908436169114308432168CA68D7
:1027400049F20C639A430243CA6020684169A26956
:1027500021F440711143416131492068884202D01F
:102760003049884202D1FEF7B7FB01E0FEF7A4FB37
:10277000E2690023192164253226B2F5004F626810
:1027800028D0A0FB0101930F9200FDF719FD01462F
:10279000B0FBF5F06FF01802504301EB800006EB40
:1027A0000010B0FBF5F000F0F002B1FBF5F002EB29
:1027B0000012B1FBF5F06FF01803584301EB8000F5
:1027C00006EB0010B0FBF5F000F00F00216810449C
:1027D000886070BDA0FB010192185B41FDF7F0FC21
:1027E0000146B0FBF5F00201B1FBF5F06FF0180304
:1027F000584301EB800006EBC000B0FBF5F000F0A1
:10280000F80002EB4002B1FBF5F0584301EB800009
:1028100006EBC000B0FBF5F000F00700D6E70000C3
:1028200000100140001401400148FFF7EBB8000020
:102830009003002010B5806B002141864185FFF791
:10284000DFF810BD0168CA6822F49072CA6001689E
:102850004A6922F001024A61012180F83D10704767
:1028600010B590F83D10222901D0022010BD8268D9
:102870004FF480539A4201D1016921B1C16A9A4251
:102880001ED04AB10AE00268C16A5268C2F3080267
:102890000A80C16A891C08E002698AB1026852682C
:1028A00002F07F020A70C16A491CC162418E491E52
:1028B0004186418E39B10068FF214160002010BD82
:1028C00002685268EEE70168CA6822F02002CA6016
:1028D0000168CA6822F48072CA6001684A6922F0FD
:1028E00001024A61012180F83D10FFF723FAE5E774
:1028F0002DE9F04104460068C16821F00C01C16077
:1029000021680869E56820F47C52D4E9060318437D
:10291000236A2B431843104340F400600861206889
:10292000C16849F20C6291432369A2681A43636942
:102930000B431A4342F40041C1602068416921F40D
:10294000407141611D4920680027192664254FF018
:102950003208884202D01A49884202D1FEF7BCFAF6
:1029600001E0FEF7A9FA61684A18A0FB060147EBEF
:102970000703FDF725FC0146B0FBF5F00301B1FBB1
:10298000F5F06FF01802504301EB800008EBC00037
:10299000B0FBF5F000F0F80003EB4003B1FBF5F0FD
:1029A000504301EB800008EBC000B0FBF5F021685C
:1029B00000F0070018448860BDE8F0810010014075
:1029C0000014014010B590F83D10322901D00220CA
:1029D00010BD418D4FF4805311B301680A68D24392
:1029E00012061DD482689A4201D1026952B1426A2C
:1029F000541C446212784A60418D491E4185418DC4
:102A000049B10DE0426A1288C2F308024A60416A85
:102A1000891C4162F0E70168CA6822F08002CA603E
:102A2000418EF9B101680A68D24392061AD48268CD
:102A30009A4209D10269C2B9C26A4968C1F3080160
:102A40001180C16A891C09E00AB902696AB1496842
:102A500001F07F01C26A1170C16A491CC162418ED6
:102A6000491E4186418E11B115E04968F2E70168BF
:102A7000CA6822F02002CA600168CA6822F4807223
:102A8000CA6001684A6922F001024A61012180F8A6
:102A90003D10FFF751F9002010BDFEE70FB4054BC4
:102AA00010B503A9044A029800F0EAF810BC5DF8DA
:102AB00014FB0000AF330008140000200907090EC2
:102AC000002804DB00F1E02080F80014704700F0DB
:102AD0000F0000F1E02080F8141D704702E008C8E4
:102AE000121F08C1002AFAD170477047002001E088
:102AF00001C1121F002AFBD1704700002DE9FF5FC2
:102B000082B00021DDE90430020DDDF840B003435E
:102B100018D044F61050A2F2FF3242431514119817
:102B200001281FD0A5EB0B00401C5FEA000A4FF004
:102B300000064E4FDFF83891B046504615D5CAF121
:102B4000000413E0119801244AA3012801D16FEA7F
:102B50000B010298119AC0E90031C0E9024206B0A7
:102B6000BDE8F09FCBF10000DFE704460021404ABA
:102B7000491842EB0450CDE9001012E0E00707D0FD
:102B800032463B4640464946FDF7C8FC80468946EA
:102B900032463B4610461946FDF7C0FC06460F4636
:102BA0006410002CEAD1DDE90401DDE90023BAF16B
:102BB000000F06DAFDF7B2FC42464B46FDF7AEFCCD
:102BC00005E0FDF71DFD42464B46FDF719FD0446A5
:102BD0000E460022284BFDF79BFD03D84FF0FF3037
:102BE000014607E00022254B20463146FDF7EFFB6A
:102BF000FDF775FD102409E0002C0ADB0A220023F2
:102C0000FDF7DEFA039B30321A55641E50EA0102CA
:102C1000F2D1641C039AC4F111031444119A012ADD
:102C200003D0012208430DD10AE0084304D000205C
:102C30004FF0110B119072E7A3EB0B056D1E0DE029
:102C40005B4504DD4FF0000205F1010504E003DA05
:102C50004FF00002A5F10105002AECD0029811996D
:102C6000C0E90231C0E9004579E7000000001440E6
:102C70000000F03F300000000000F0430000E03FA3
:102C80002DE9FF4F95B09B468946064600250FE289
:102C9000252877D100242746F84A0121059400E031
:102CA000044316F8013F203B01FA03F01042F7D12C
:102CB00030782A2811D06FF02F033078A0F130023D
:102CC000092A16D8059A44F0020402EB820203EBAB
:102CD00042021044761C0590EFE759F8042B059248
:102CE000002A03DA504244F40054059044F00204F0
:102CF000761C30782E2816D116F8010F44F0040403
:102D00002A280DD06FF02F023078A0F13003092B64
:102D100009D807EB870302EB4303C718761CF3E7D8
:102D200059F8047B761C30786C280FD006DC4C28D0
:102D300017D068280DD06A2814D104E0742810D068
:102D40007A280FD10DE044F400140AE044F4801412
:102D500001E044F440147278824202D104F58014F8
:102D6000761C761C307866280BD013DC582877D078
:102D700009DC002875D04528F6D04628F4D047282D
:102D80001AD19DE118E0632835D0642879D06528F0
:102D900012D195E1702873D008DC6728F1D069283A
:102DA0006FD06E280DD06F2806D1B5E073282CD0D7
:102DB000752875D0782874D05A46179990476D1C9D
:102DC00075E1C4F30250022809D003280DD0D9F8C8
:102DD000001004280DD00D6009F1040967E1D9F84D
:102DE0000010EA17C1E90052F6E7D9F800100D808B
:102DF000F2E70D70F0E719F8041B8DF800100020C1
:102E00008DF80100EA46012003E059F804AB4FF0C9
:102E1000FF3061074FF0000102D40DE008F101011D
:102E20008846B9420FDA8045F8DB1AF80810002905
:102E3000F4D108E008F1010188468142FADB1AF872
:102E400008100029F6D105985B46A0EB080721463B
:102E50003846179A00F094FA284400EB080507E07A
:102E60004DE029E10DE01AF8010B5A4617999047F9
:102E7000B8F10108F7D25B4621463846179A13E1AC
:102E800042E00A220092C4F302524FF0000A022AE2
:102E900008D059F804CB032A4FEAEC710AD00DE0B0
:102EA00029E02AE009F1070121F00702F2E802C156
:102EB000914609E00FFA8CFC4FEAEC71042A03D129
:102EC0004FFA8CFC4FEAEC71002907DA0A46002120
:102ED000DCF1000C61EB02012D2202E0220504D599
:102EE0002B228DF80420012203E0E20701D02022EA
:102EF000F7E7904659E00A2102E010220DE0102188
:102F00004FF0000A00910BE010224FF0000A44F04D
:102F100004040827009203E008224FF0000A009200
:102F2000C4F30252022A05D059F804CB0021032A27
:102F300008D009E009F1070121F00702F2E802C117
:102F4000914605E01FFA8CFC042A01D10CF0FF0C1D
:102F50004FF00008220728D5702806D0009B83F088
:102F6000100353EA0A0305D00EE040228DF8042036
:102F7000012208E05CEA010206D030228DF804202C
:102F80008DF8050002229046009B83F0080353EA67
:102F90000A030AD15CEA010201D1620705D5302299
:102FA0008DF804204FF001087F1E582804D034A06B
:102FB00003900EA802900DE036A0F9E75346604654
:102FC000009AFDF7FDF884460398825C0298401E43
:102FD000029002705CEA0100F0D1029806A9081A7A
:102FE00000F1200A600702D524F4803400E00127B4
:102FF000574502DDA7EB0A0000E0002000EB0A01C4
:10300000009005984144401A0590E00306D45B46C1
:103010002146179A059800F0B3F90544002706E009
:1030200001A85A46C05D179990476D1C7F1C474503
:10303000F6DBE0030CD55B462146179A059800F0B5
:103040009FF9054404E030205A46179990476D1CBB
:103050000099481E00900029F5DC08E002980299CA
:103060005A460078491C0291179990476D1CBAF195
:103070000001AAF1010AF1DC65E100000928010064
:1030800030313233343536373839616263646566DE
:1030900000000000303132333435363738394142A0
:1030A000434445460000000000F058F90544761CF2
:1030B000307800287FF4ECAD19B02846BDE8F08FD9
:1030C000620700D4062709F1070222F0070CFCE88A
:1030D0000223E14603F000485FEA080C02D00FF239
:1030E000702C0DE05FEA045C02D50FF2682C07E05B
:1030F0005FEAC47C02D00FF2602C01E0AFF2700CEA
:103100004FF0FF3823F00043CDF850C065280CD0B5
:1031100006DC452809D046281DD047283DD13DE092
:10312000662818D067287ED138E00021112F01DBF6
:10313000112000E0781CCDE9000106A90EA8FFF7D8
:10314000DDFCDDE90F010E9A03910021009207F1E9
:10315000010A04914DE04FF000400097CDE90110C5
:1031600006A90EA8FFF7CAFCDDE90F0203920E9B29
:1031700011990022DDF80CA00093049211B9791C7A
:1031800000EB010AB7EB0A0004D4C0F1FF3007F1ED
:10319000010A0490AAEB0700019044E0012F00DA35
:1031A00001270021112F01DD112000E03846CDE973
:1031B000000106A90EA8FFF7A1FCDDE90F010E9A98
:1031C0000391002104910092BA4621070CD403997F
:1031D000514500DA8A46BAF1010F05DD009AAAF1DD
:1031E0000101515C302908D0B84202DA10F1040F15
:1031F00006DA0121CDE9011015E0AAF10101E9E7A4
:10320000002805DC049901440491AAEB000102E0C6
:10321000411C514500DD8A460499401A401C01902A
:103220004FF000400290200704D40198504501DB84
:10323000CDF8048000208DF84F0002980DF14F0763
:10324000B0F1004F25D02B200E9002984FF00208CD
:1032500000280CDA404202902D200E9007E00A214F
:103260000298FDF722F83031029007F8011DB8F1FD
:103270000001A8F10108F2DC02980028EFD1791EC4
:103280000E980870307800F0200040F0450007F8F4
:10329000020D12A8C01B00F107081498007800B1B5
:1032A000012000EB0A01019801EBE071059841440F
:1032B000401A401E0590E00306D45B462146179A4B
:1032C000059800F05DF805441498007818B15A4646
:1032D000179990476D1CE00324D55B462146179A49
:1032E000059800F04DF805441CE00498002807DB21
:1032F000DDE90301884203DD0098405C179901E095
:10330000179930205A469047049805F10105401C52
:1033100004900198401E019004D12E205A4617991E
:1033200090476D1CBAF10001AAF1010ADDDC05E04D
:1033300017F8010B5A46179990476D1CB8F1000118
:10334000A8F10108F4DC5B462146179A0598ABE624
:103350002D0000002B000000200000002DE9F041AE
:10336000044600251E461746880404D405E0394665
:103370002020B0476D1C641EF9D52846BDE8F081B9
:103380002DE9F041044600251E469046C80301D5AC
:10339000302700E02027880404D505E04146384660
:1033A000B0476D1C641EF9D52846BDE8F08138B5DC
:1033B00004468DF8000069460320ABBE204638BDA8
:1033C00070B5434D2DED028B86B0287800287BD058
:1033D000404C00210846E278131D04E0265C401CA6
:1033E0003144C9B2C0B28342F8D83A48001D105CDB
:1033F00088425FD11522211D6846FCF712FFBDF9F6
:103400000C009FED358A00EE100AF8EEC00A80EE3F
:10341000880A10EE100AFCF735FF41EC100B2FA0C4
:1034200053EC102BFFF73AFBBDF90E0000EE100A2B
:10343000F8EEC00A80EE880A10EE100AFCF722FFB0
:1034400041EC100B29A053EC102BFFF727FBBDF923
:10345000100000EE100AF8EEC00A80EE880A10EEA6
:10346000100AFCF70FFF41EC100B24A053EC102BBB
:10347000FFF714FBBDF9130000EE100AF8EEC00AC6
:1034800080EE880A10EE100AFCF7FCFE41EC100BEF
:103490001DA053EC102BFFF701FB9DF81200FCF769
:1034A000E4FE41EC100B1CA053EC102BFFF7F6FAD6
:1034B00008E009E01CA0FFF7F1FAE1781DA0091D62
:1034C000FFF7ECFA0020287006B0BDEC028B70BD4F
:1034D00010000020180400200000C842726F6C6CBD
:1034E0003A20252E32662C2000000000706974639B
:1034F000683A20252E32662C200000007961773A48
:1035000020252E32662C200074656D703A20252E01
:1035100032662C20000000006C6576653A20252E6E
:1035200032660D0A0000000073756D2025640D0AD7
:1035300000000000636F756E742025640D0A0000A2
:10354000FDF78EFBFEF75CFFFEF7F8FBFEF7D2FC03
:10355000FEF7F0FCFEF7A8FDFEF7DCFDFEF720FE0F
:10356000FEF752FEFEF784FEFEF7B6FEFEF702FD02
:10357000FEF736FDFEF766FDFEF7E4FEFEF7FEFE03
:10358000FEF71AFF00F016F800F062F80122064973
:103590000648FEF7A1FB4FF47A740548FFF710FFC9
:1035A0002046FDF707F9F8E71804002090030020F3
:1035B0003604002070B500211F48FEF755F904219C
:1035C0001D48FEF751F900211C48FEF74DF9042172
:1035D0001A48FEF749F91A4C002204212046FDF74B
:1035E000F3F9002210212046FDF7EEF9154D0022D7
:1035F000E1142846FDF7E8F9134E00224FF400517C
:103600003046FDF7E1F9012208212046FDF7DCF9FB
:10361000012211460D48FDF7D7F9012291022846F3
:10362000FDF7D2F9012211033046FDF7CDF9BDE8CF
:1036300070406420FDF7BEB8280200207002002010
:1036400000100240000C024000040240001402403E
:1036500010B508210A48FEF707F90C210848FEF7C3
:1036600003F900210648FEF7FFF800210548FEF7A0
:10367000FBF8BDE8104000210348FEF7F5B8000054
:1036800008010020B8020020000300200000000014
:103690000000000001020304060708090000000002
:1036A00001020304C43600080000002018000000D6
:1036B000DC2A0008DC36000818000020380800006A
:1036C000EC2A0008010000001000000000000000CB
:0C36D0000024F4000100000000000000D5
:040000050800018965
:00000001FF
