:020000040800F2
:10000000800800209D010008732100089318000853
:1000100071210008A902000817280008000000004C
:100020000000000000000000000000007721000830
:10003000AB020008000000007521000879210008CB
:10004000B7010008B7010008B7010008B7010008B0
:10005000B7010008B7010008B7010008B7010008A0
:10006000B7010008B7010008B7010008B701000890
:10007000B7010008B7010008B7010008B701000880
:10008000B7010008B7010008B7010008B701000870
:10009000B7010008B7010008B7010008B701000860
:1000A000B7010008B7010008B7010008B701000850
:1000B000B7010008B7010008B7010008B701000840
:1000C000B7010008B7010008B7010008B701000830
:1000D000B7010008B7010008B7010008A52500080E
:1000E000B7010008B7010008B7010008B701000810
:1000F000B7010008B7010008B7010008B701000800
:10010000B7010008B7010008B7010008B7010008EF
:10011000B7010008B7010008B7010008B7010008DF
:10012000B7010008B7010008B7010008B7010008CF
:10013000B7010008B7010008B7010008B7010008BF
:10014000B7010008B7010008B7010008B7010008AF
:10015000B7010008B7010008B7010008B70100089F
:10016000B7010008B7010008B7010008B70100088F
:10017000B7010008B7010008B7010008000000003F
:10018000B7010008B7010008DFF80CD000F07AF8DA
:1001900000480047A9290008800800200648804739
:1001A00006480047FEE7FEE7FEE7FEE7FEE7FEE75C
:1001B000FEE7FEE7FEE7FEE71122000889010008DE
:1001C0002DE9F05F0546002092469B46884606468C
:1001D000814640241BE0284641464746224600F01F
:1001E00041F853465A46C01A914110D31146184659
:1001F000224600F028F82D1A67EB01084F462246E8
:100200000120002100F01FF817EB00094E41201ECD
:10021000A4F10104DFDC484631462A464346BDE8E6
:10022000F09FD2B201E000F8012B491EFBD27047CB
:100230000022F6E710B513460A4604461946FFF7B2
:10024000F0FF204610BD202A04DB203A00FA02F11C
:10025000002070479140C2F1200320FA03F31943B4
:1002600090407047202A04DB203A21FA02F0002156
:10027000704721FA02F3D040C2F1200291400843B6
:1002800019467047064C074D06E0E06840F0010350
:1002900094E8070098471034AC42F6D3FFF778FF94
:1002A000182D0008382D0008FEE7704772B6FEE7EB
:1002B00070B540211D4800F05DF91D4C1D4D4FF4F7
:1002C00000412060284600F055F960604FF400516D
:1002D000284600F04FF9A060E914284600F04AF9DA
:1002E000E0606915284600F045F9134D2061802132
:1002F000284600F03FF960611021284600F03AF9E5
:10030000A0610221284600F035F9E061D4E900122D
:100310001144A2681144E2681144226911446269DF
:100320001144A26911440844206270BD00040240D7
:100330002800002000180240000C024090F8351000
:10034000022903D08021416501207047052180F8F2
:1003500035100068016821F001010160002070473C
:1003600070B5044600F010F90546601C02D0044840
:100370000078044400F008F9401BA042FAD370BD95
:10038000000000202DE9F84FDFF8BCA10022012574
:1003900003264FF00F090AF1040BAAF1040E00BF67
:1003A0000B6805FA02F42340A34270D10F7907F0DD
:1003B0000307012F01D0022F16D187684FEA4208A8
:1003C00006FA08FC27EA0C07D1F80CC00CFA08FC66
:1003D0004CEA070CC0F808C04768A7430C79C4F37F
:1003E000001494403C4344600C79E443A4070AD0D1
:1003F000C4684FEA420C06FA0CF7BC438F6807FA50
:100400000CF72743C7600C7904F00304022C12D1C7
:10041000D40800EB840CDCF820405707FF0E09FAE3
:1004200007F824EA0804D1F8108008FA07F848EA27
:100430000408CCF8208004684FEA420C06FA0CF756
:10044000BC430F7907F0030707FA0CF7274307604F
:100450004C6814F4403F70D03C4C276847F4804708
:100460002760246822F0030704F480440094384C89
:1004700007EB040CDCF8084897074FEA177809FAED
:1004800008F7BC43334FB84202D1002724E054E0C0
:10049000314FB84201D101271EE0304FB84201D19F
:1004A000022719E02E4FB84201D1032714E02D4F47
:1004B000B84201D104270FE02B4FB84201D10527E4
:1004C0000AE02A4FB84201D1062705E0284FB8427A
:1004D00001D1072700E0082707FA08F72743CCF8DF
:1004E0000878DAF800405746D1F804C09C435FEA28
:1004F000CC2C00D51C433C60DBF800405F46D1F8B3
:1005000004C09C435FEA8C2C00D51C433C60DEF8A1
:1005100000407746D1F804C09C435FEA8C3C00D58C
:100520001C433C60084F083F3C68D1F804C09C4322
:100530005FEACC3C00D51C433C60521C102AFFF4FF
:100540002FAFBDE8F88F0000083C0140443802405E
:100550000030014000000240000402400008024058
:10056000000C02400010024000140240001802403B
:10057000001C02400069084000D0012070470AB109
:10058000816170470904FBE70148806870470000FB
:100590000000002070B5040025D094F83D0000252F
:1005A00020B984F83C50204600F0B8F8242084F8A4
:1005B0003D002068016821F00101016020680168A8
:1005C00041F4004101602068016821F400410160AC
:1005D00000F04CFA4D4A6168914201D84C4900E064
:1005E0004C49884201D2012070BD4B492368B0FBC1
:1005F000F1F15E6826F03F060E435E606368934249
:1006000006D94FF4967359434FF47A73B1FBF3F163
:100610002368491C1E6A26F03F063143196261684F
:10062000914210D84900401EB0FBF1F2521CC2F3B7
:100630000B02042A01D2042022E0B0FBF1F0401C9E
:10064000C0F30B001CE0A268F2B301EBC10303EBA3
:100650000116431EB3FBF6F35B1C43F480431B05FA
:1006600049D092B301EBC10202EB0111401EB0FB75
:10067000F1F0401CC0F30B0040F4804040F4004017
:100680002168CA694CF6FF739A431043C861D4E9E4
:10069000071001432068026822F0C0021143016084
:1006A000D4E9030101432068826848F2FF339A438A
:1006B00011438160D4E9050108432168CA6822F02A
:1006C000FF021043C86001E00EE016E020680168F8
:1006D00041F0010101602564202084F83D0025637C
:1006E00084F83E50002070BD01EB4106431EB3FB71
:1006F000F6F35B1CB3E70120C2E701EB4101401EAA
:10070000B0FBF1F0401CC0F30B00B7E7A08601007E
:1007100080841E0000093D0040420F002DE9F04199
:1007200086B0044614216846FFF782FD2F4A2168EF
:10073000DFF8BC8000242E4812250326042708F188
:10074000100891421CD1016841F00201016000686B
:1007500002AA00F002000590B002CDE9000582E88F
:10076000D00069462348FFF70DFED8F8001041F489
:100770008001C8F80010D8F8000000F4800031E0D3
:100780001D4A91422FD1016841F0040101600168C6
:1007900001F004010591016841F001010160006868
:1007A000694600F0010005905015CDE9000502AA48
:1007B000124882E8D000FFF7E5FD4FF48070CDE9E4
:1007C000000502AA694682E8D0000D48FFF7DAFD6D
:1007D000D8F8001041F40001C8F80010D8F8000063
:1007E00000F40000059006B0BDE8F081005800401C
:1007F0003038024000040240005C00400008024023
:10080000000002400248816802781144816070470C
:10081000000000200B4810B5016841F40071016030
:10082000016841F480610160016841F480710160F8
:10083000032000F06FF80F2000F006F800F024F815
:10084000002010BD003C024070B50D4D04464FF431
:100850007A712878B1FBF0F00A490968B1FBF0F031
:1008600000F00CFB48B9102C07D200222146501E84
:1008700000F030F800206C6070BD012070BD0000F9
:10088000000000200C0000200A4808B5016841F46F
:1008900080410160006800F4804000900548001F1E
:1008A000016841F080510160006800F080500090C4
:1008B00008BD000044380240002809DB00F01F0298
:1008C000012191404009800000F1E020C0F80011B2
:1008D00070470000F0B40E4B1B680C46C3F30223B4
:1008E000C3F10705042D00D90425191D072901D2DC
:1008F000002300E0DB1E012606FA05F1491E214017
:1009000099409E40761E16403143F0BC01F084BFF2
:100910000CED00E0064900F0070208684FF6FF03FF
:10092000184040EA0220034A104308607047000064
:100930000CED00E00000FA052DE9F0470E46050039
:1009400065D0DFF81481D8F80000F7B200F0070096
:10095000B04207D288F80070D8F8000000F0070015
:10096000B04254D128683D4C810712D5400703D5C9
:10097000206840F4E05020602878000703D5206804
:1009800040F4604020602068A96820F0F00008432F
:1009900020602878C0072DD03049686808390128C0
:1009A00012D0022813D0032811D009688907002922
:1009B0002DDA216821F0030101432160FFF7E4FDF6
:1009C000814641F2883A0EE009688903EFE7096839
:1009D0008901ECE7FFF7D8FDA0EB0901514502D9E9
:1009E0000320BDE8F0872068696800F00C00B0EBD8
:1009F000810FEFD1D8F80010404601F00701B14255
:100A000007D90770006800F00700B04201D001204C
:100A1000E7E72878400705D52068E96820F4E0502A
:100A2000084320602878000706D52068296920F44B
:100A3000604040EAC100206000F038F82168084AB0
:100A4000C1F30311515CC8400649086006480068BC
:100A5000FFF7FAFE0020C4E7003C024008380240DD
:100A6000002D00080C000020040000200448054967
:100A700000680968044AC1F38221515CC84070478C
:100A80000C00002008380240102D000804480549D9
:100A900000680968044AC1F34231515CC84070479C
:100AA0000C00002008380240102D0008154810B531
:100AB000006810F00C02144813D01449042A0FD017
:100AC000082A0ED10F4C241F2268236802F03F022F
:100AD0005B0207D52068C0F38810A0FB010106E087
:100AE000084610BD2168C1F38811A1FB0001002355
:100AF000FFF766FB2168C1F30141491C4900B0FBC7
:100B0000F1F010BD083802400024F40040787D0167
:100B10002DE9F84F04006ED02078DFF84C93C00721
:100B2000A9F104054AD009F104000168C1F381016B
:100B3000012908D00068C0F3810002280AD1D9F841
:100B40000000400206D52868800337D56068002879
:100B5000E1D033E06068B0F5803F10D0B0F5A02F51
:100B6000286810D020F480302860286820F4802085
:100B700028606068A8B1FFF707FD06460DE0286809
:100B800040F48030F4E740F480202860F7E700BFAD
:100B9000FFF7FAFC801B642873D828688003F7D518
:100BA0000CE0FFF7F1FC064605E000BFFFF7ECFCA8
:100BB000801B6428F0D828688003F7D42078DFF8F9
:100BC000AC8280074FF0000A3ED5A748001D01689F
:100BD00011F00C0F08D00068C0F3810002280BD17F
:100BE000D9F80000400207D42868800716D5E068CD
:100BF000012800D112E033E1E068B8B10120C8F863
:100C00000000FFF7C1FC064605E000BFFFF7BCFC93
:100C1000801B0228C0D828688007F7D5286821697A
:100C200020F0F80040EAC10028600DE0C8F800A0FC
:100C3000FFF7AAFC064604E0FFF7A6FC801B02288B
:100C40001FD828688007F7D42078000722D5864F60
:100C500087486169703771B101210160FFF794FC29
:100C6000064604E0FFF790FC801B022809D838688C
:100C70008007F7D50EE0C0F800A0FFF785FC064618
:100C800005E082E0FFF780FC801B02287DD83868F1
:100C90008007F7D42078400768D5DFF8CCB100276B
:100CA0000BF13C0BDBF80000C0000BD4DBF80010AC
:100CB00041F08051CBF80010DBF80000012700F074
:100CC000805000906B4E3068C00510D4306840F4FE
:100CD00080703060FFF758FC009005E0FFF754FC8F
:100CE0000099401A022850D83068C005F6D55E4EEB
:100CF000A0686C3601280FD00528306810D020F08D
:100D000001003060306820F004003060A068B8B1A5
:100D1000FFF73AFC00900FE0306840F00100F4E784
:100D200040F004003060F7E7FFF72EFC0099411A0D
:100D300041F28830814266D830688007F4D50EE0F1
:100D4000FFF722FC009007E0FFF71EFC0099411A14
:100D500041F28830814256D830688007F4D42FB1F0
:100D6000DBF8001021F08051CBF80010A069C8B367
:100D70003D49091D0968C1F3810102294AD00228B1
:100D8000504607D0C8F8600000E03CE0FFF7FCFBED
:100D900004463BE04746C8F86000FFF7F5FB06460F
:100DA00005E000BFFFF7F0FB801B02282BD8286866
:100DB0008001F7D4D4E907010843A16A2E4A490803
:100DC00002EB0141626A41EA8211084394F82C1057
:100DD00040EA0161C9F8001001203866FFF7D4FB32
:100DE000044606E03EE000BFFFF7CEFB001B0228F2
:100DF00009D828688001F7D534E000BFFFF7C4FBAD
:100E0000001B022802D90320BDE8F88F2868800162
:100E1000F4D427E00128F7D0D9F80000E26900F403
:100E2000800191421CD1226A00F03F01914217D10A
:100E300047F6C071626A0140B1EB821F10D1A26A0D
:100E40004FF0FF3300F4403103EB5202B1EB024F9D
:100E500006D194F82C1000F07060B0EB016F01D057
:100E60000120D1E70020CFE70438024000004742CC
:100E7000800E4742007000400000FFFF10B5401E8A
:100E8000B0F1807F01D3012010BD4FF0E0246061FC
:100E90000F21601701F0C0FC0020A0610720206135
:100EA000002010BD70B590F83C20012A32D00124FA
:100EB00080F83C40022280F83D2003685A689D6813
:100EC00022F070060A6832435A60134B02689A4255
:100ED00014D0B2F1804F11D0104B9A420ED0104B6B
:100EE0009A420BD00F4B9A4208D00F4B9A4205D032
:100EF0000E4B9A4202D00E4B9A4204D1496825F01B
:100F000080031943916080F83D40002180F83C1037
:100F1000084670BD022070BD000001400004004082
:100F200000080040000C0040000401400040014067
:100F30000018004010B5040003D094F83D0010B133
:100F400007E0012010BD002084F83C00204600F09E
:100F50001FF8022084F83D00211D206801F060F98F
:100F6000012084F8460084F83E0084F83F0084F8AD
:100F7000400084F8410084F8420084F8430084F87B
:100F8000440084F8450084F83D00002010BD0000B6
:100F900008B50C4A01680C48914207D1016841F03C
:100FA00080010160006800F0800009E0074A91427A
:100FB00007D1016841F480710160006800F480701D
:100FC000009008BD001C0040403802400020004056
:100FD0002DE9F0410D46040003D094F83D0018B10E
:100FE00008E00120BDE8F081002084F83C002046A4
:100FF00000F040F8022084F83D002068816844F247
:10100000070291438160211D206801F009F92268DF
:1010100090689169166A2B68AF69034340F2033008
:10102000814341EA0721A868EF6908434FF6FC4174
:101030008843E96840EA0720014328692F6A0001D4
:1010400040EA0730084369686D6926F0AA0646EA57
:101050000515294393602268906154F8460B01629C
:10106000012004F81F09E0752076E0762077A0754E
:101070000020B7E730B587B0044614216846FFF773
:10108000D7F824683E4B00213E4802229C421CD1E6
:101090003C4B14331C6844F001041C601B6803F0D3
:1010A00001030593036843F010030360006800F038
:1010B000100005904FF420600090CDE9012101203F
:1010C000CDE90310694630481CE02E4B2F4D1033FC
:1010D000AC421BD11C6844F002041C601B6803F086
:1010E00002030593036843F002030360006800F005
:1010F0000200059030200090CDE90121CDE90312D6
:1011000069462348FFF73EF907B030BD214DAC4298
:1011100019D11C6844F004041C601B6803F004032C
:101120000593036843F008030360006800F00800BB
:1011300005904FF440500090CDE90121CDE9031214
:1011400069461548DEE7154DAC42DDD11C6844F018
:1011500008041C601B6803F008030593036843F050
:1011600001030360006800F0010005900320009077
:10117000CDE90121CDE9031269460948C2E7000023
:1011800000000140303802400010024000040040DE
:101190000004024000080040000C0240000C004027
:1011A0000000024070B586B0044614216846FFF77F
:1011B0003FF824680022314902233148B4F1804FBE
:1011C00018D0304DAC4226D1086840F010000860BD
:1011D0000868694600F01000059060200090CDE995
:1011E00001320320CDE90320274800BFFFF7CAF8EA
:1011F00006B070BD0C6844F001040C60096801F091
:10120000010105912C210091CDE901320121CDE9A7
:1012100003216946EAE71D4E0925B4420ED108684C
:1012200040F0020008600868694600F0020005907E
:10123000E0000090CDE9013215481CE0154EB442A3
:1012400009D10C6844F001040C60096801F0010147
:10125000059140210BE0104EB442C9D10C6844F016
:1012600001040C60096801F00101059180210091E1
:10127000CDE901326946CDE90325B7E730380240B0
:1012800000000240004001400010024000180040F1
:1012900000040240001C00400020004070B50446DD
:1012A00090F83C0000260D4601280FD0012084F85C
:1012B0003C006AB1042A1DD0082A2FD00C2A3FD046
:1012C0000126002084F83C00304670BD022070BD2D
:1012D000206801F01FF82068816941F008018161F0
:1012E0002068816921F004018161206881692A698F
:1012F000114311E0206801F03DF82068816941F454
:10130000006181612068816921F4806181612068C8
:1013100081692A6941EA02218161D2E7206801F0EE
:101320005FF82068C16941F00801C1612068C169A6
:1013300021F00401C1612068C1692A69114311E0EB
:10134000206801F081F82068C16941F40061C16141
:101350002068C16921F48061C1612068C1692A697E
:1013600041EA0221C161ACE710B5040003D094F852
:101370003D0010B107E0012010BD002084F83C00C2
:10138000204600F01FF8022084F83D00211D20684F
:1013900000F046FF012084F8460084F83E0084F8FF
:1013A0003F0084F8400084F8410084F8420084F84B
:1013B000430084F8440084F8450084F83D00002090
:1013C00010BD000008B501681148B1F1804F0CD084
:1013D000104A914211D1001D016841F48031016031
:1013E000006800F48030009008BD016841F0010100
:1013F0000160006800F00100F5E7074A9142F3D16F
:10140000016841F040010160006800F04000EAE737
:1014100040380240004001400018004010B504462A
:10142000022249B104290ED0082913D094F84100B2
:10143000012816D0012010BD94F83E000128F9D1F2
:1014400084F83E200FE094F83F000128F2D184F8A0
:101450003F2008E094F840000128EBD184F84020B8
:1014600001E084F841200122206800F045FF164980
:101470002068164A884201D0904203D1436C43F45D
:10148000004343642068884213D0B0F1804F10D0ED
:101490000F4988420DD00F4988420AD00E49884230
:1014A00007D0904205D00D49884202D00C498842AD
:1014B00004D1816801F00701062903D0016841F0D9
:1014C00001010160002010BD000001400004014046
:1014D0000004004000080040000C004000400140B3
:1014E0000018004070B5040004D094F841000025B5
:1014F00010B106E0012070BD84F84050204600F095
:1015000023F8242084F841002068C16821F40051A8
:10151000C160204600F0C0FF2068016921F49041BD
:1015200001612068416921F02A0141612068C16898
:1015300041F40051C1606564202084F8410084F8C2
:1015400042006563002070BD10B586B004461421CA
:101550006846FEF76DFE14492068884221D1134881
:101560000021026842F010020260006800F01000E2
:1015700005900E481438026842F0010202600068CB
:1015800000F0010005904FF4C06000900220CDE90A
:101590000101032003900720049069460448FEF7E8
:1015A000F1FE06B010BD00000010014044380240BA
:1015B000000002407047000070B5026804461068E1
:1015C000D168536910F00F0F56D003F0010501F4F4
:1015D00090762E436AD0C20705D0CA0503D5226C87
:1015E00042F001022264420705D5DA0703D0226CDB
:1015F00042F002022264820705D5DA0703D0226C8A
:1016000042F004022264020707D501F020022A43B7
:1016100003D0226C42F008022264226C002A3ED0E1
:10162000800608D5880606D594F83D002228204675
:101630002FD001F085F820684069216CC0F380103C
:10164000090700D460B3204600F0BAFF2068416962
:10165000490621D5416921F040014161A06BD8B113
:1016600038490165A06BFEF769FE002817D0A06B12
:10167000016DBDE870400847830617D58B0615D568
:1016800094F83D00222819D12046BDE8704000F0B2
:10169000A5BF00F0A3FFCEE72046FFF78BFF70BD8C
:1016A0002046FFF787FF0020206470BD030634D575
:1016B0000B0632D594F83D00122804D02046BDE830
:1016C000704001F03DB894F83D001228EDD1A068BB
:1016D000B0F5805F01D12069B0B1606A411C6162E0
:1016E000216800784860608D401E0004000C608511
:1016F000DBD12068C16821F08001C1602068C16829
:1017000041F04001C16070BD606A0088C0F308000C
:101710005060606A801C6062E5E74006F3D54806C9
:10172000F1D5D168204621F04001D16021684A6995
:1017300022F001024A61012184F83D1000F0A7F86F
:1017400070BD0000B125000870B5040004D094F805
:101750003D00002510B106E0012070BD84F83C502A
:10176000204600F01BF8022084F83D00204600F0DF
:101770007DFF2068016921F4804101612068416991
:1017800021F02A0141612068C16841F40051C16023
:101790002564012084F83D00002070BD2DE9F04152
:1017A00086B0044614216846FEF742FD324A21689D
:1017B0000024324802250326DFF8C480914239D143
:1017C0002E4910310A6842F480220A60096801F447
:1017D00080210591016841F008010160016801F074
:1017E00008010591016841F004010160006802AA46
:1017F00000F0040005903002CDE90005072782E8DB
:10180000D00069461F48FEF7BDFDE802CDE900059E
:1018100002AA694682E8D0004046FEF7B3FD0022E6
:1018200011462720FFF756F82720FFF745F806B0A6
:10183000BDE8F081144A9142F9D1104914310A6887
:1018400042F020020A60096801F020010591016858
:1018500041F0040101600068029400F0040005906A
:101860004FF4E070CDE900050820CDE9036069463A
:101870004046FEF787FDDAE7004800403038024076
:1018800000080240000C02400014014070477047FD
:101890007047FEE770B5FEF70BFD7C487C4C7D4B36
:1018A00001797D48BEEE000AF6EE000ABFEE001A8E
:1018B000F7EE001ABFEE085AF7EE083AB8EE004A03
:1018C000F0EE004AF8EE085AB0EE082AF8EE0C2ABC
:1018D000B0EE0C3A012904D003294DD002297AD068
:1018E000CAE06E496E4A0968126851EA020503D0DF
:1018F000012904D031B107E09FED6A0AAFE0002A68
:1019000021D001E0012A68D0246852EA04056ED093
:101910001B6853EA01056CD0012A00D1BCB30BB996
:1019200001295BD060490A6854EA020159D05F4935
:10193000096851EA030557D0012C00D10AB119B149
:1019400004E0B8EE040A8AE0012B0CD0584B1C6866
:1019500052EA040351D0574B1B6853EA01055ED08D
:10196000012A03D003E0B0EE040A78E0A4B3002B10
:10197000C2D1012959D0BFE748490A6848490968D6
:1019800052EA0105B8D0012A02D01AB104E010E0F1
:1019900071B301E0012972D0246851EA040571D0C5
:1019A0001B6853EA020565D0012900D10CB11BB1B7
:1019B00004E080ED005A5FE0012A0FD03A490A683E
:1019C00054EA02010DD03949096851EA03050BD0E8
:1019D000012C0FD00FE036E024E050E0C0ED003ADB
:1019E0004AE080ED004A47E0C0ED004A44E049E0AB
:1019F00035E03FE00AB119B104E0C0ED005A3BE028
:101A0000012B0CD02A4B1B6852EA03040AD0294C44
:101A1000246854EA010508D0012A09D009E080EDC4
:101A2000002A29E0C0ED002A26E080ED003A23E0FC
:101A300033B1002C9FD101299DD1B1EE020A0EE0F5
:101A4000B9EE020A0BE015490A681549096852EA1D
:101A5000010590D0012A01D022B105E021B980ED25
:101A6000000A09E001290AD0246821430AD0196834
:101A70001143DFD1C0ED001A90ED000A70BDC0ED3A
:101A8000000AF9E780ED001AF6E700004C0000209C
:101A90003C00002030000020240000203400002002
:101AA0003800002000000000400000202C00002032
:101AB00044000020280000202DE9F04F87B01421B9
:101AC0006846FEF7B5FB63480024016841F0100149
:101AD0000160016801F010010591016841F0040105
:101AE0000160016801F004010591016841F02001E5
:101AF0000160016801F020010591016841F0800159
:101B00000160016801F080010591016841F0010167
:101B10000160016801F001010591016841F0400197
:101B20000160016801F040010591016841F0020186
:101B30000160016801F002010591016841F00801AE
:101B400001600068002200F0080005901C21424856
:101B5000FEF715FDDFF80481002201214046FEF763
:101B60000EFDDFF8FCA00022FF215046FEF707FD26
:101B7000DFF8F0B04FF44056002231465846FEF7E9
:101B8000FEFCDFF8E490B710002239464846FEF725
:101B9000F6FC1C2000900125CDE9015469462E4831
:101BA0000394FEF7EFFB0095CDE9015469464046EA
:101BB0000394FEF7E7FB4FF42470CDE90004694677
:101BC00040460294FEF7DEFB0520CDE9000469469D
:101BD00026480294FEF7D6FBFF200090CDE9015481
:101BE000694650460394FEF7CDFB0096CDE90154BB
:101BF000694658460394FEF7C5FB0097CDE90154AA
:101C0000694648460394FEF7BDFB9220CDE90004E7
:101C1000694648460294FEF7B5FB4FF47E40CDE995
:101C20000004694650460294FEF7ACFB4FF4527034
:101C3000CDE90004694658460294FEF7A3FB032051
:101C4000CDE90004694604480294FEF79BFB07B007
:101C5000BDE8F08F3038024000100240001402400E
:101C60000018024000040240000C0240000802403C
:101C70000D4810B50B4901600C49416000214FF43B
:101C800080428160C0E9031241618161C1610162EA
:101C9000FEF780FC002803D0BDE81040FEF706BB2D
:101CA00010BD00000058004060000020A086010028
:101CB0000D4810B50B4901600C49416000214FF4FB
:101CC00080428160C0E9031241618161C1610162AA
:101CD000FEF760FC002803D0BDE81040FEF7E6BA2E
:101CE00010BD0000005C0040B4000020A086010090
:101CF00010B588B01C216846FEF79AFA16481549B7
:101D000000240160A721C0E901144FF47A71C0E9F1
:101D100003148461FFF728FB08B1FEF7C7FA6020BF
:101D2000CDE900040294002269460B480494FFF7B1
:101D3000B5FA08B1FEF7BAFA042269460648FFF779
:101D4000ADFA08B1FEF7B2FA0348FFF72BFA08B074
:101D500010BD000000180040B802002010B588B087
:101D60001C216846FEF764FA144813490024C0E9B0
:101D700000144FF6FF71C0E9024104618461FFF76E
:101D8000D9F808B1FEF792FA0C48FFF7EDFA08B15E
:101D9000FEF78CFA6020CDE9000402940022694627
:101DA00006480494FFF77AFA08B1FEF77FFA034871
:101DB000FFF7F8F908B010BD001C00400003002038
:101DC00010B588B01C216846FEF732FA1448134952
:101DD0000024C0E900144FF6FF71C0E9024104611C
:101DE0008461FFF7A7F808B1FEF760FA0C48FFF727
:101DF000BBFA08B1FEF75AFA6020CDE9000402945C
:101E00000022694606480494FFF748FA08B1FEF735
:101E10004DFA0348FFF7C6F908B010BD0020004096
:101E20004803002010B58CB024216846FEF700FA64
:101E300000241648099414490A94C0E900144FF686
:101E4000FF71C0E902410461446184610120CDE970
:101E50000004CDE902040494CDE9054007946946E5
:101E60000A480894FFF7B4F808B1FEF71FFA09947E
:101E700009A906480A94FFF715F8002801D0FEF7D3
:101E800015FA0CB010BD0000000001400801002050
:101E900010B58AB0002407941C2168460894FEF708
:101EA000C7F91D484FF08041C0E90014611EC0E928
:101EB000024104618461FFF757FA08B1FEF7F6F9B1
:101EC000079407A914480894FEF7ECFF08B1FEF741
:101ED000EDF96020CDE900040294002269460E4825
:101EE0000494FFF7DBF908B1FEF7E0F90822694630
:101EF0000948FFF7D3F908B1FEF7D8F90C22694673
:101F00000548FFF7CBF908B1FEF7D0F90248FFF713
:101F100049F90AB010BD00005001002010B58CB086
:101F200024216846FEF784F90024154809941349D2
:101F30000A94C0E900144FF6FF71C0E90241046140
:101F400084610120CDE90004CDE902040494CDE9C7
:101F50000540079469460A480894FFF739F808B124
:101F6000FEF7A4F9099409A905480A94FEF79AFF17
:101F7000002801D0FEF79AF90CB010BD0004004013
:101F80009801002010B58CB024216846FEF750F966
:101F900000241548099413490A94C0E900144FF627
:101FA000FF71C0E90241046184610120CDE90004B0
:101FB000CDE902040494CDE90540079469460A4836
:101FC0000894FFF705F808B1FEF770F9099409A91C
:101FD00005480A94FEF766FF002801D0FEF766F96F
:101FE0000CB010BD00080040E001002010B58CB01E
:101FF00024216846FEF71CF900241548099413496A
:102000000A94C0E90014611EC0E9024104618461C0
:102010000120CDE90004CDE902040494CDE9054096
:10202000079469460A480894FEF7D2FF08B1FEF704
:102030003DF9099409A906480A94FEF733FF0028E0
:1020400001D0FEF733F90CB010BD0000000C0040C9
:102050002802002010B588B01C216846FEF7E8F879
:102060001648154900240160A721C0E901144FF466
:102070007A71C0E903148461FFF776F908B1FEF7BD
:1020800015F96020CDE900040294002269460B484E
:102090000494FFF703F908B1FEF708F90422694632
:1020A0000648FFF7FBF808B1FEF700F90348FFF711
:1020B00079F808B010BD0000004001407002002017
:1020C0000C4810B50A4901604FF4E131416000212C
:1020D00081600C22C160C0E904128161C161FFF717
:1020E00001FA002803D0BDE81040FEF7DFB810BDAC
:1020F00000100140900300200D4810B50B4901600D
:102100004FF4E1314160002181600C22C160C0E9DF
:1021100004128161C1610162FFF716FB002803D040
:10212000BDE81040FEF7C2B810BD000000480040F6
:10213000D80300200D4810B50B4901604FF4E13180
:102140004160002181600C22C160C0E904128161FC
:10215000C1610162FFF7F8FA002803D0BDE8104022
:10216000FEF7A4B810BD0000001401401C040020BC
:10217000FEE7FEE770477047FEF744BB30B593B00B
:1021800030216846FEF754F814210CA8FEF750F8E9
:102190001D480025016841F080510160006800F091
:1021A000805011901948016841F480410160006835
:1021B000022400F48040119001200390102004902C
:1021C000009406940820CDE90750A820CDE9090421
:1021D00004200B906846FEF79BFC08B172B6FEE740
:1021E0000CA90F2081E831004FF4A0500F904FF45C
:1021F0008050109005210CA8FEF79EFB002801D00E
:1022000072B6FEE713B030BD4038024000700040A7
:102210000248016841F470010160704788ED00E0F8
:10222000F0B50268294C2A4D2A4E2B4F2B4B4FF00C
:10223000804CA04209D0604507D0A84205D0B042EA
:1022400003D0B84201D0984204D122F0700E4A68FF
:1022500042EA0E02A0421BD0604519D0A84217D016
:10226000B04215D0B84213D0984211D01C4DA842AC
:102270000ED01C4DA8420BD01B4DA84208D01B4DC0
:10228000A84205D01A4DA84202D01A4DA84203D147
:1022900022F44075CA682A434D6922F080022A431D
:1022A00002608A68C2620A688262A04201D09842D3
:1022B00001D109690163012141610169C90703D0A5
:1022C000016921F001010161F0BD00000000014041
:1022D0000004004000080040000C004000040140E1
:1022E0000040014000440140004801400018004007
:1022F000001C00400020004010B501F01F03012128
:10230000046A99408C430462016A9A401143016255
:1023100010BD0000F0B5036A026A22F001020262F9
:1023200042688469124E24F073050C682C4323F034
:1023300002058B682B430D4DA84201D0B04205D158
:1023400023F00807CB683B4323F00403A84201D0E5
:10235000B04205D14D6922F4407215438A692A437F
:1023600042608461496841630362F0BD000001403E
:1023700000040140F0B5026A036A23F0100303620F
:10238000436884690D6824F4E64444EA05248D68B2
:1023900022F0200242EA05120F4D104EA84201D051
:1023A000B04206D1CF6822F0800242EA071222F042
:1023B0004002A84201D0B04207D14D6923F44063E6
:1023C00043EA85038D6943EA850343608461496874
:1023D00081630262F0BD0000000001400004014082
:1023E000F0B5026A036A23F4807303624368C46928
:1023F00022F4007224F073050C68124E2C438D6891
:1024000042EA05220E4DA84201D0B04206D1CF6863
:1024100022F4006242EA072222F48062A84201D03C
:10242000B04207D14D6923F4405343EA05138D6947
:1024300043EA05134360C4614968C1630262F0BDA9
:10244000000001400004014030B5046A026A22F431
:10245000805202624268C3690D6823F4E64343EA8E
:1024600005238D6824F4005444EA0534084DA8423D
:1024700002D0084DA84204D14D6922F4804242EABC
:1024800085124260C36149680164046230BD000086
:10249000000001400004014070B504460068016975
:1024A000E26821F44051114301612169A068E269A9
:1024B00008436169114308432168CA6849F20C6303
:1024C0009A430243CA6020684169A26921F44071BD
:1024D0001143416131492068884202D03049884225
:1024E00002D1FEF7D3FA01E0FEF7C0FAE269002359
:1024F000192164253226B2F5004F626828D0A0FB6E
:102500000101930F9200FDF75BFE0146B0FBF5F071
:102510006FF01802504301EB800006EB0010B0FB97
:10252000F5F000F0F002B1FBF5F002EB0012B1FBA8
:10253000F5F06FF01803584301EB800006EB001034
:10254000B0FBF5F000F00F0021681044886070BD0A
:10255000A0FB010192185B41FDF732FE0146B0FB82
:10256000F5F00201B1FBF5F06FF01803584301EBF1
:10257000800006EBC000B0FBF5F000F0F80002EBC5
:102580004002B1FBF5F0584301EB800006EBC000C0
:10259000B0FBF5F000F00700D6E7000000100140A6
:1025A000001401400148FFF707B80000D8030020DD
:1025B00010B5806B002141864185FEF7FBFF10BD01
:1025C0000168CA6822F49072CA6001684A6922F000
:1025D00001024A61012180F83D10704710B590F862
:1025E0003D10222901D0022010BD82684FF4805393
:1025F0009A4201D1016921B1C16A9A421ED04AB101
:102600000AE00268C16A5268C2F308020A80C16A1D
:10261000891C08E002698AB10268526802F07F02F0
:102620000A70C16A491CC162418E491E4186418EB1
:1026300039B10068FF214160002010BD0268526876
:10264000EEE70168CA6822F02002CA600168CA6821
:1026500022F48072CA6001684A6922F001024A616C
:10266000012180F83D10FFF711F9E5E72DE9F04170
:1026700004460068C16821F00C01C1602168086946
:10268000E56820F47C52D4E906031843236A2B43FF
:102690001843104340F4006008612068C16849F2A3
:1026A0000C6291432369A2681A4363690B431A437E
:1026B00042F40041C1602068416921F440714161E8
:1026C0001D4920680027192664254FF032088842EA
:1026D00002D01A49884202D1FEF7D8F901E0FEF78C
:1026E000C5F961684A18A0FB060147EB0703FDF72F
:1026F00067FD0146B0FBF5F00301B1FBF5F06FF0AB
:102700001802504301EB800008EBC000B0FBF5F06D
:1027100000F0F80003EB4003B1FBF5F0504301EB90
:10272000800008EBC000B0FBF5F0216800F0070066
:1027300018448860BDE8F081001001400014014099
:1027400010B590F83D10322901D0022010BD418D06
:102750004FF4805311B301680A68D24312061DD4A6
:1027600082689A4201D1026952B1426A541C4462A1
:1027700012784A60418D491E4185418D49B10DE075
:10278000426A1288C2F308024A60416A891C4162A7
:10279000F0E70168CA6822F08002CA60418EF9B190
:1027A00001680A68D24392061AD482689A4209D113
:1027B0000269C2B9C26A4968C1F308011180C16ADD
:1027C000891C09E00AB902696AB1496801F07F0110
:1027D000C26A1170C16A491CC162418E491E41869C
:1027E000418E11B115E04968F2E70168CA6822F02C
:1027F0002002CA600168CA6822F48072CA60016857
:102800004A6922F001024A61012180F83D10FFF778
:102810003FF8002010BDFEE70907090E002804DB81
:1028200000F1E02080F80014704700F00F0000F184
:10283000E02080F8141D704702E008C8121F08C18C
:10284000002AFAD170477047002001E001C1121F31
:10285000002AFBD1704700002DE9F0410F460546E4
:10286000012208214648FDF78AFE0122114645480B
:10287000FDF785FE012291024348FDF780FE01220B
:1028800011034248FDF77BFE9FED410A4148424C4F
:10289000424E0771F3EE040A012F31D0022F37D0D8
:1028A000032F2DD09FB300BFFEF7F4FF86ED000A83
:1028B00084ED010AD4ED020A394970EE800A10EE67
:1028C000900AC4ED020A884203DBDFED360AC4ED4C
:1028D000020AD4ED040A70EE600AC4ED030A84ED26
:1028E000040A94ED051AD4ED021A21EE000A94EDC3
:1028F000061A01EE210A94ED071A01EE200A1BE0E8
:10290000C4ED050A84ED060A84ED070ACCE707E06A
:1029100005EB8500400000EE900AF8EEE00AEFE7D4
:10292000F0EE400AC6ED000AC4ED010AC4ED040A47
:10293000C4ED020AC4ED030A00EE905A01EE105AEB
:10294000F8EEE00AB8EEC11A70EE800A31EE400AE5
:10295000C6ED010A86ED020ABDEEC00ABDE8F041EF
:1029600010EE100A03B210EE100ABDEEE00A02B239
:1029700010EE100A01B210EE100A00B200F09EB87C
:102980000010024000140240000C0240000402400B
:10299000000000004C000020600400201000002017
:1029A0000000FA440000FA44FDF734FFFFF7E6FBAD
:1029B000FFF782F8FFF75CF9FFF77AF9FFF732FAD1
:1029C000FFF766FAFFF7AAFAFFF7DCFAFFF70EFB4C
:1029D000FFF740FBFFF78CF9FFF7C0F9FFF7F0F9BD
:1029E000FFF76EFBFFF788FBFFF7A4FB00F018F87A
:1029F00000F0EEF8094C00BFFDF75AFC20680528EE
:102A000005DD0121C820FFF727FF0A2002E000F0C2
:102A10004DF93220FDF7A4FCEEE70000480000204D
:102A200070B500211F48FEF7F9FC04211D48FEF790
:102A3000F5FC00211C48FEF7F1FC04211A48FEF7C2
:102A4000EDFC1A4C002204212046FDF798FD0022DF
:102A500010212046FDF793FD154D0022E114284674
:102A6000FDF78DFD134E00224FF400513046FDF767
:102A700086FD012208212046FDF781FD0122114635
:102A80000D48FDF77CFD012291022846FDF777FDF8
:102A9000012211033046FDF772FDBDE8704064204D
:102AA000FDF75EBC70020020B8020020001002405A
:102AB000000C024000040240001402402DE9F05FC7
:102AC000DFF8F49015460E4607461C460122042105
:102AD000C8464846FDF753FD012210214046FDF748
:102AE0004EFDDFF8D8A00122D1025046FDF747FD88
:102AF000DFF8CCB0012251035846FDF740FDDFF866
:102B0000C480002F0ADD012208214846FDF737FD69
:102B1000D8F80000C7F57A71416309E00022082166
:102B20004846FDF72CFDD8F8000007F57A77476393
:102B30002548002E09DD01221146FDF720FDD8F8B9
:102B40000000C6F57A71816308E000220121FDF7DB
:102B500016FDD8F8000006F57A7686631B4E4FF412
:102B60008061002D08DD01225046FDF708FD316827
:102B7000C5F57A70486307E000225046FDF7FFFC78
:102B8000306805F57A7545634FF48051002C09DDF6
:102B900001225846FDF7F3FC3168C4F57A7088636A
:102BA000BDE8F09F00225846FDF7E9FC306804F5C7
:102BB0007A748463F4E7000000100240000C0240C5
:102BC000000402407002002000140240B8020020FD
:102BD00010B508210A48FEF721FC0C210848FEF731
:102BE0001DFC00210648FEF719FC00210548FEF7F0
:102BF00015FCBDE8104000210348FEF70FBC0000A3
:102C000050010020000300204803002070B50D464D
:102C10000446012208210D48FDF7B1FC01221146AE
:102C20000B48FDF7ACFC012291020A48FDF7A7FC16
:102C3000012211030848FDF7A2FC2BB221B2BDE826
:102C400070401A460846FFF739BF000000100240E6
:102C500000140240000C02400004024070B50D4612
:102C60000446012208210D48FDF789FC0122114686
:102C70000B48FDF784FC012291020A48FDF77FFC16
:102C8000012211030848FDF77AFC2BB221B2BDE8FE
:102C900070401A460846FFF711BF000000100240BE
:102CA00000140240000C0240000402400F4810B51E
:102CB0000068052819DA0E484FF448710268484246
:102CC00082B10C4A12686AB10B4A12681AB10B4AF7
:102CD0001268002A09D1FFF799FFBDE810403220A1
:102CE000FDF73EBBFFF7BAFFF7E710BD4800002035
:102CF000280000202C00002044000020400000207C
:102D0000000000000000000001020304060708099B
:102D10000000000001020304382D0008000000201C
:102D20004C00000038280008842D00084C000020CA
:102D300034080000482800080100000010000000CE
:102D4000000000000024F40000000000000000006B
:102D50000000000000000000000000000000000073
:102D60000000000000000000000000000000000063
:102D70000000000000000000000000000000000053
:042D8000000000004F
:040000050800018965
:00000001FF
